:020000040800F2
:100000001830002041C400084DC300084FC3000849
:1000100051C3000853C3000855C300080000000086
:10002000000000000000000000000000E3270008BE
:1000300057C30008000000009D2700087F1B000830
:1000400071C4000875C4000879C400087DC40008A4
:1000500081C4000885C4000889C400088DC4000854
:1000600091C4000895C4000899C4000859C3000849
:100070009DC40008A1C40008A5C40008A9C40008C4
:10008000ADC40008B1C40008B5C40008B9C4000874
:100090005FC30008BDC40008C1C40008C5C400088F
:1000A000C9C4000865C30008CDC40008D1C4000855
:1000B000D5C40008D9C40008DDC40008E1C40008A4
:1000C000E5C40008E9C40008EDC40008F1C4000854
:1000D000F5C40008F9C40008FDC4000801C5000803
:1000E00005C5000809C500080DC50008000000008E
:1000F0000000000000000000000000000000000000
:10010000000000000000000011C5000815C500082F
:1001100019C500081DC5000821C5000825C500082F
:1001200029C500082DC5000831C5000835C50008DF
:1001300039C5000800000000000000003DC50008AF
:100140006BC3000841C5000845C5000849C5000843
:100150000FB400B587B0100018BF022B00F09D80CF
:100160000846C0F34061002904BFC0F300610029C4
:1001700002BF81B245F2F462914244D1C0F307411B
:10018000F02906DA010A8DF80310C0F307410902CD
:1001900008E0FF218DF80310C0F30722C0F30741E8
:1001A00002EB012104910499B1F5007F18BFB1F56C
:1001B000106F29D0B1F5805F18BFB1F5985F23D0DB
:1001C000B1F5A85F18BFB1F5B05F1DD0B1F5B85F4C
:1001D00018BFB1F5C85F17D0B1F5E05F18BFB1F532
:1001E000F05F11D0B1F51C5F18BFB1F5745F0BD093
:1001F000B1F5824F18BFB1F56A4F05D0B1F56B4F1D
:1002000018BFB1F56C4F48D1810E01F007018DF890
:1002100000108DF80400010E01F001018DF80110AD
:10022000010C0C988DF805008DF802109DF8050062
:100230000928A4BF08208DF805000F9801788DF8D3
:100240000610002341788DF8071005AA81788DF8F3
:100250000810C1788DF8091001798DF80A104179DC
:100260008DF80B1081798DF80C1000A9C0798DF8EC
:100270000D0000200590DFF8CC09006800F0CAFDF1
:1002800001280AD1059840B1DFF8BC194FF0805021
:100290000860BFF34F8FBFF36F8F07B05DF814FB9B
:1002A0001FB5DFF8A0490FF628210020206010229A
:1002B00000A800F045FF002100A800F0D5FF206055
:1002C000DFF88819DFF888098860142000F0C1FF82
:1002D00000F0E0FF012004B010BD10B5DFF8744954
:1002E0008078B6E010B500F0D4F8DFF86C4941EA48
:1002F0000220E0800120207001F04AF8A060012077
:10030000207110BD38B5DFF854596A680C4610F8F2
:10031000011B120A41EA0221696021F47F4110F8B1
:10032000012B41EA0221696021F47F0110F8012BC1
:1003300041EA02416960092C10F8011B297200F0A2
:1003400066F8698100F063F8A98138DB10F8011BB9
:10035000A97310F8011BE97310F8011B297410F838
:10036000011B697410F8011BA97410F8011BE974D2
:1003700010F8011B297510F8011B697510F8011B95
:10038000A97510F8011BE97510F8011B297600F01A
:100390003EF810F8012B41EA0241E96110F8011B17
:1003A00085F8201010F8011B85F82110002110F8A5
:1003B000012B4B19491C83F822201129F7DB312C22
:1003C00009D1002110F8012B4B19491C83F8332067
:1003D0000829F7DB05E0FF22082105F1330000F0D2
:1003E000DDFFDFF87408017939B9696889B240F234
:1003F0000112914208BF312C01D1012100E00021FE
:10040000017000F0C5FFE8630120287031BD10F8CD
:10041000011B10F8012B41EA0221704710B500F0D2
:1004200038F8DFF83C4800F04EF800F02DF8218154
:1004300010F8011FA17200F025F8A18100F03CF82E
:10044000E08100F0A5FF206107E010B5DFF8144857
:100450000078607000F09CFF60600120207010BD8B
:1004600010B500F016F8DFF8004841EA022161807B
:1004700000F008F8A18010F8011FA17100F088FFBA
:10048000A060EAE710F8011F10F8012F41EA0221ED
:100490007047017810F8012F704710B5FFF7F9FF8A
:1004A000DFF8C84700F00FF8217200F005F860810E
:1004B00000F06EFFE060D0E710F8011F10F8012F88
:1004C00041EA0220704741EA0221618010F8011FD1
:1004D00010F8012F41EA0221A18010F8011F10F845
:1004E000012F41EA0221E18010F8011F704710B589
:1004F000DFF87C470178617010F8011FA17010F8D7
:10050000011FE17010F8011F217110F8011F6171C6
:1005100010F8011FA17110F8011FE17100F038FF00
:10052000A0609AE738B5B1F5007FC8BF4FF40071FD
:100530000022DFF8404709E010F8013B10F8015BAA
:1005400043EA052304EB4205521C6B8092B2B2EBE6
:10055000510FF1D392B2FF2ADFBF4FF6FF7104EBC8
:1005600042004180521CF5DD00F012FFC4F8040285
:1005700014E038B58129A8BF80210023DFF8F846B0
:1005800000F024F8802B05DAFF22C3F18001681CFB
:1005900000F004FF00F0FCFEC4F88400012020708D
:1005A00031BD38B51129A8BF10210023DFF8CC4692
:1005B00000F00CF8102B05DAFF22C3F11001681CC3
:1005C00000F0ECFE00F0E4FE6061E7E703E010F805
:1005D000012B6A705B1C9BB21D198B42F7D37047CD
:1005E000DFF89C1602784A7010F8012F10F8013FCE
:1005F00042EA03224A8010F8012F0A7117E0DFF85F
:10060000841602784A7010F8012F10F8013F42EA70
:1006100003224A8010F8012F10F8013F42EA03221A
:100620008A8010F8012F8A7110F8012FCA710120F9
:1006300008707047017810F8012F41EA022110F884
:10064000012F10F8013F41EA0241DFF83C2641EA60
:100650000360506001201070704700B587B0002122
:100660000091421CC168029100AB0421039100215A
:1006700004910178DFF8D4050068059101A900F024
:10068000E5FF002814BF0020012007B000BD00B521
:1006900085B0DFF8F815039101218DF80110FF21D5
:1006A0008DF802108DF803108DF804108DF80510E8
:1006B00081798DF80610C1798DF80710007A8DF8D0
:1006C000080008206EE100B585B0DFF8C41503917D
:1006D000FF218DF801108DF802108DF8031000F045
:1006E00013F85FE100B585B0DFF8A415039111217F
:1006F0008DF80110417A8DF8021001218DF8031058
:10070000FF2100F001F84DE18DF804108DF805107F
:10071000C17A8DF80610017B8DF80710407B8DF8AB
:1007200008000820704700B585B000F01BF8FE21D6
:1007300000F009F836E100B585B000F013F8FF21AC
:1007400000F001F82EE18DF8051041688DF80610D3
:100750004168090A8DF807104068000C8DF8080000
:1007600008207047DFF82815039113218DF8011038
:10077000B0F804128DF80210B0F80412090A8DF8CE
:10078000031081788DF8041000F50170704700B5F2
:1007900085B0DFF80005039001208DF8010000F01E
:1007A00039F8FFE000B585B0DFF8EC040390DFF81E
:1007B000EC040178012904BF017A012912D1417AA0
:1007C00000EB8101C968090C8DF80110417A00EB3A
:1007D0008101C968090A8DF80210417A00EB810095
:1007E000C06806E0C068010C8DF80110010A8DF8A0
:1007F00002108DF80300FF2000F0EDF80320D1E097
:1008000000B585B0DFF898148DF80100039100F071
:1008100001F8C7E0FF208DF802008DF803008DF885
:1008200004008DF805008DF806008DF807008DF89E
:1008300008000820704700B585B0DFF86804039011
:10084000FF208DF8010000F0C2F80720AAE01FB5D4
:1008500000F036F88DF80730180A8DF80800DFF838
:10086000484400F027F80CBF062008201CE000B523
:1008700085B0DFF838148DF801000391FF2000F0F7
:10088000A6F801208EE01FB500F01AF843F0FC0036
:100890008DF80700FF208DF80800DFF8144400F001
:1008A00009F80CBF062008208DF8000000A8FFF70B
:1008B000D4FE1FBDDFF8A003007803940028704722
:1008C0008DF80100000A8DF802008DF80310080A67
:1008D0008DF804008DF80520100A8DF80600704789
:1008E00000B585B041784288ADF8002042F47042EE
:1008F00000798DF8051040F0F000ADF800208DF87B
:100900000800FF20BDF800108DF806108DF80900D2
:100910008DF80A008DF80B008DF80C000420BDF84E
:100920000010DFF890238DF80400090A04928DF876
:10093000071001A839E000B585B0DFF87C130391FA
:1009400001888DF801100188090A8DF8021041888C
:100950008DF803104088000A8DF80400FF2000F095
:100960003CF8BD48007800280CBF0520082019E09D
:1009700000B585B00068D1490843D14902E000B50F
:1009800085B0D04903918DF80100010A8DF802105D
:10099000010C000E8DF804008DF80310FF2000F00C
:1009A0001CF804208DF8000000A8FFF756FE05B0E3
:1009B00000BD00B585B0C4498DF801000391000A5F
:1009C0008DF80200FF2000F004F80220EAE78DF81D
:1009D00002008DF803008DF804008DF805008DF8F5
:1009E00006008DF807008DF80800704770B50546C1
:1009F000944800684FF0FF340022294600F05FFA67
:100A000001282FD12869B14EB0F5007F58D0B0F53C
:100A1000106F30D0B0F5805F31D0B0F5985F32D034
:100A2000B0F5A85F33D0B0F5B05F33D0B0F5B85FA4
:100A300033D0B0F5C85F33D0B0F5E05F34D0B0F557
:100A4000F05F35D0B0F51C5F11D0B0F5824F0AD001
:100A5000B0F56A4F30D0B0F56B4F00F08A80B0F53A
:100A60006C4F30D0EAE0A81DFFF737FCDEE0A81D90
:100A7000FFF738FCDAE0A81DFFF7E7FCD6E0A81D79
:100A8000FFF7EEFCD2E0A81DFFF731FDCEE069795B
:100A9000A81DC1E06979A81DC2E06979A81DC3E05D
:100AA000A81DFFF79DFDC1E0A81DFFF7A8FDBDE053
:100AB000A81DFFF7BFFDB9E02846FFF7E8FDB5E048
:100AC0000821A81D9CE0A879102802D0FF2842D058
:100AD000B4E0297B687B090201EB0040E97A081841
:100AE000B0F5007F18BFB0F5C06F0BD0B0F5885FD0
:100AF00018BFB0F5A85F05D0B0F5B05F18BFB0F56E
:100B0000B85F24D1297AEA7902EB0121A6F806120E
:100B1000697AC6F8080271700020B070A6F8040265
:100B2000B6F80602A0F10902B2F5DE6F03D811B1E2
:100B3000B0F5007F05DD002030702846FFF7C3FDCB
:100B40007CE0102030702846FFF7CCFD76E0284688
:100B5000FFF7B9FD0AE02A7B697BD6F8080212028A
:100B600002EB0141EA7A5118884267D100203070C7
:100B700064E0A879012803D10020B070A6F804022F
:100B8000B078A979401C884252D101204119B6F8A9
:100B9000042289799219D170B6F80412B6F80622A7
:100BA000491CA6F8041289B2914203D2401CC0B27B
:100BB0000828EBDBB0787378401CB070C0B2984264
:100BC00038BF91423AD3132030703046FFF7B3FD5F
:100BD000D6F80802B6F80612B0F5007F0FD0B0F5CF
:100BE000C06F10D0B0F5885F11D0B0F5A85F12D0FB
:100BF000B0F5B05F13D0B0F5B85F14D01EE0F01CB4
:100C0000FFF780FB12E0F01CFFF708FC0EE0F01C81
:100C1000FFF743FC0AE0F01CFFF784FC06E0F01C41
:100C2000FFF7A7FC02E0F01CFFF7BBFC2C6905E016
:100C30000020B07030703046FFF775FD204670BD63
:100C400000000000D827002004ED00E0780100201B
:100C5000510100088C270020502700201426002076
:100C600084260020942700205C27002030270020C5
:100C700068270020D0210020002500200827002020
:100C80009C270020A4270020AC27002056F4E81859
:100C900056F4EC1C56F4010C56F426180C020020F5
:100CA00056F4011856F4071856F4081856F40A10AA
:100CB00056F4121856F41A1056F41D18FCF0C0FC25
:100CC00056F41F0856F4201856F42218C41F0020AA
:100CD00040000000140000000000000000000000C0
:100CE00038B504000D4602D100F089F9FEE700F0A6
:100CF0001BFF201D2168826BC36B03FB0211616027
:100D00000021416321684160826B2168C36B521EE0
:100D100003FB021181604FF0FF3184F8441084F826
:100D2000451075B9C068A0B104F1100001F0ADF92B
:100D300078B14FF08050DFF8E413086000F062F9FA
:100D400007E004F1100001F003FB04F1240001F0BE
:100D5000FFFA00F002FF012032BD38B51C465023D7
:100D600020B983F3118800F04DF9FEE724B983F32D
:100D7000118800F047F9FEE72AB129B983F31188F9
:100D800000F040F9FEE769B948250095009D482D1F
:100D90000DD1012384F846300094049B00F02BF819
:100DA000204632BD83F3118800F02CF9FEE783F36F
:100DB000118800F027F9FEE7F8B504000D46164645
:100DC00002D100F01CF9FEE7002D0EBF482005FB04
:100DD00004F0483001F004FB07000AD0002087F837
:100DE00046000097334607F148022946204600F0A6
:100DF00002F83846F2BD82B0029B01B91A461A6069
:100E0000D86319641846012102B069E702A900A855
:100E100001F07AB92DE9F0470400884616461F46CE
:100E20004FF0500904D189F3118800F0EBF8FEE788
:100E300004F12405B8F1000F01D1E86950BB022F7D
:100E400002D1A86901282AD100F0BEFEEFF3118A71
:100E500089F31188BFF34F8FBFF36F8F6869A9695A
:100E6000884201D3022F25D194F945903A46414654
:100E7000204600F0CCF819F1010F15D1606AB8B125
:100E8000284601F002F9002818BF002E10D00120DA
:100E900030600DE089F3118800F0B4F8FEE789F3C3
:100EA000118800F0AFF8FEE709F1010084F8450071
:100EB000012000E000208AF31188BDE8F0872DE9C9
:100EC000F44783B004468A460027502524B985F3A9
:100ED000118800F097F8FEE704F11006BAF1000F50
:100EE00001D1306B48B901F089F978B9039868B13C
:100EF00085F3118800F086F8FEE785F3118800F08D
:100F000081F8FEE700F072F800F0D1FF00F00CFE6F
:100F1000B56ADFF808824FF0805995B1514600F06C
:100F200068F8681EB062206938B1304601F0ADF84B
:100F300018B1C8F8009000F065F800F00EFE01202E
:100F40003CE0039810B900F008FE36E017B900F055
:100F50003EF8012700F001FE00F0A3FF00F0E4FDE1
:100F600000F038F804BF002084F8440000F037F89F
:100F700004BF0021417000F0F0FD03A9FFF747FF17
:100F80000028204610D100F0BDF80028BAD000F0AB
:100F900016F800F02BF800F08AFF0028B6D1C8F848
:100FA000009000F02FF8B1E700F078F800F07FFF34
:100FB000204600F0A7F80028A8D0002004E00399FC
:100FC00004F1240001F04FB804B0BDE8F08700A898
:100FD00001F093B894F9440010F1010F704704F147
:100FE000440090F9011011F1010F7047204655E0BF
:100FF000294620463FE004F1240001F046B8502085
:1010000080F31188BFF34F8FBFF36F8F7047F8B530
:1010100004461746A56B226C002642B9206830BBF7
:10102000606801F0F7F80646002060601FE067B9CD
:10103000A06800F075F8A068216C0818A0606168CD
:10104000884214D32068A06011E0E06800F068F8DE
:10105000206CE16840424118E1602268914202D26E
:1010600061684018E060022F01D105B16D1E681C57
:10107000A0633046F2BD10B5026C0B466AB1C16880
:101080005118C1604468A14224BF0168C160C168B1
:10109000BDE81040184600F043B810BDF8B504464E
:1010A00000F042FD04F1440504F1100795F90160D8
:1010B00005E0FFF7A0FF08B101F053F8761E76B205
:1010C000012E02DB78690028F3D14FF0FF366E70F5
:1010D00000F043FD00F028FD94F9445006E0384646
:1010E00000F0D3FF08B101F03CF86D1E6DB2012D88
:1010F00002DB20690028F2D184F84460BDE8F140A9
:1011000000F02BBD10B5044600F00EFDA06B441E90
:10111000A44100F022FDE00F10BD000004ED00E04E
:1011200062B38B0708D0521E11F8013B00F8013B57
:1011300000F024808B07F6D1830740F0208000BFA9
:10114000103A07D330B4B1E83810103AA0E838109C
:10115000F9D230BC530724BFB1E80810A0E808104A
:1011600044BF51F8043B40F8043BD20724BF31F898
:10117000022B20F8022B44BF0B7803707047083A0B
:1011800007D3B1E80810083A40F8043B40F804CB14
:10119000F7D25307E4E750F8041B61B150F8042B71
:1011A000D30744BFA9F101039A18002342F8043B76
:1011B000091FFAD1EFE770470021842818BFC11C2E
:1011C00008467047EFF3058000B10120C0B27047B8
:1011D00080B500F03EFE002002BD80B5FFF7F2FFB3
:1011E00000281CBFBDE8014000F0B1BEBDE80140D1
:1011F00000F0A9BE30B5044685B060690D460028F0
:101200001CBFA069002812D0B4F90800FFF7D4FF72
:10121000A16902912B4661690191009022692168C0
:10122000606800F003FD0390039805B030BDB4F989
:101230000800FFF7C1FF009003A901912B46226926
:101240002168606892B200F01FFD0128ECD00020F8
:10125000EBE780B500B9012000F0DEFD002002BD03
:1012600000207047FF20704780B58268002A1CBFAD
:10127000C368002B06D00021009141680068FFF789
:101280006CFD02BD41680068BDE808400022FFF720
:1012900093BD000010B53A4C3A4820608AB009204E
:1012A00005E010B5384C394820608AB012206060E3
:1012B0000020A060E0604FF4E02020614FF4C00007
:1012C00060610020A061A083204600F09BF8002010
:1012D000009001900290039004900590069000A960
:1012E00001200790089000200990204600F007F99F
:1012F000204600F075F90221204600F0A3FA0AB05A
:1013000010BD70B596B004460820139000201190CF
:10131000129008200C9000200A900B901949206828
:10132000174D884212D106AB0FAA0021284600F0C3
:10133000FAF92E6B300009D006A803900FA984B0EB
:1013400068461C22FFF7FCFE0FBCB04720680F491F
:10135000884212D104AB08AA00210B4800F0E3F93F
:101360006C6B200009D004A8039008A984B06846DB
:101370001C22FFF7E5FE0FBCA04716B070BD0000B1
:101380005001002000640040C0260020006800409A
:1013900080B5FFF722FF00B9012002BD62F30F22E2
:1013A00062F31F42401810F0030308D0C91A1FD37C
:1013B000DB0748BF00F8012D28BF20F8022D1300DD
:1013C00030B414461546103928BF20E93C00FAD83D
:1013D000490728BF20E90C0048BF40F8042D8900C8
:1013E00028BF20F8022D48BF00F8012D30BC7047FF
:1013F000C91818BF00F8012DCB0728BF00F8012D30
:101400007047000038B5040029D094F8200010B9C6
:10141000204601F00FF900F00EF9054620684168FA
:10142000C90705D401F0B2F9401B0B28F6D30FE031
:10143000016821F00201016001F0A8F90546206869
:10144000416889070DD501F0A1F9401B0B28F6D39F
:10145000606A40F400306062052084F820000120BA
:1014600032BD217E012901680CBF41F0800121F0CD
:10147000800101602068617E012901680CBF41F094
:10148000400121F0400101602068A17E012901682E
:101490000CBF41F0200121F0200101602068E17EB5
:1014A000012901680CBF21F0100141F01001016019
:1014B0002068217F012901680CBF41F0080121F05B
:1014C000080101602068617F012901680CBF41F0BB
:1014D000040121F004010160A068E168084321696A
:1014E0000843616908436168491E08432168C8616F
:1014F00000206062012084F82000002032BDF0B599
:1015000090F82020012A18BF022A65D14D480268B0
:1015100042F001020260026822F47C52026002681A
:101520004B6A42EA0322026001220B7DC46903F088
:101530001F039A40D3431C40C461CD69424CB5B9E6
:10154000C5681D40C5604F684D69CE6804EBC50590
:10155000BFB247EA0646C5F840624D690F688E681B
:1015600004EBC505BFB247EA0646C5F84462CD693B
:10157000012D16D1C5681543C5604F684D690E68C9
:1015800004EBC505BFB247EA0646C5F840624D699F
:10159000CE6804EBC5048D68B6B246EA0545C4F8CA
:1015A00044528C69002C44680CBF1C4014434460B6
:1015B0000C69002C07BF446923404369134343610E
:1015C000096A012902D1C1691143C1610168490851
:1015D000490001600020F0BD416A41F4802199E09A
:1015E00038B5044694F8200001281ED1022084F862
:1015F00020002068016849084900016001F0C6F830
:10160000054620684068C0070CD501F0BFF8401BB4
:101610000B28F6D3606A40F400306062052084F83D
:10162000200006E00020606232BD606A40F40020C5
:101630006062012032BD2068016841F00101016053
:1016400001F0A4B80066004000640040F0B590F8D6
:1016500020400568AD68012C18BF022C57D115F049
:10166000E05F50D0C5F30164032C03D3416A41F419
:1016700000014FE00125A5401D6023010468CD68ED
:101680008E681C191EB90E6845EA465503E04F687E
:1016900046EAC7063543C4F8805105680C695D19F0
:1016A000C5F88441097D012907D101685918D1F88D
:1016B000844144F48074C1F884419479D17924043C
:1016C00044EA0161547941EA042114792143046810
:1016D0001C19C4F88C119478D178240444EA01616F
:1016E0005478127841EA0421114302689A18C2F82A
:1016F000881100681818D0F8801141F00101C0F875
:1017000080110020F0BD416A41F4001102E0416AFD
:1017100041F4802141620120F0BD416A41F4802101
:1017200041620120704770B590F82040012C18BF2D
:10173000022C40F081800468002901D1E46800E0B7
:10174000246914F0030F03D1416A41F4001176E0DB
:10175000056805EB0115D5F8B05115F00405956045
:10176000066806EB0116D6F8B05107BF6D0D15607F
:10177000ED085560056805EB0115D5F8B05105F089
:101780000205D560056805EB0115D5F8B45105F0E3
:101790000F051561056805EB0115D5F8B451C5F3C2
:1017A00007259561056805EB0115D5F8B4512D0C99
:1017B0005561026802EB0112D2F8B8211A70026872
:1017C00002EB0112D2F8B821120A5A70026802EB39
:1017D0000112D2F8B821120C9A70026802EB0112C1
:1017E000D2F8B821120EDA70026802EB0112D2F8B8
:1017F000BC211A71026802EB0112D2F8BC21120A54
:101800005A71026802EB0112D2F8BC21120C9A71D3
:10181000026802EB0112D2F8BC21120EDA710068E4
:1018200021B9C16841F02001C16003E0016941F0C4
:1018300020010161002070BD416A41F480214162B4
:10184000012070BD90F82020012A18BF022A03D180
:1018500000684269114300E05FE741610020704782
:101860002DE9F84F04464FF00008206846694768A4
:101870008568D0F80C90D0F810A0D0F818B0F10717
:1018800045D5E90713D501218160A80703D5204676
:1018900000F0DDF80BE0680748BF4FF4006806D49D
:1018A00028074EBF4FF48058204600F0D3F8E805D3
:1018B00015D521684FF480708860A80503D52046AF
:1018C00000F0C6F80BE0680548BF48F4005806D49D
:1018D00028054EBF48F48048204600F0BCF8E803D5
:1018E00015D521684FF480308860A80303D52046C1
:1018F00000F0AFF80BE0680348BF48F4004806D496
:1019000028034EBF48F48038204600F0A5F8300781
:1019100048BF5FEAC96004D52168102048F4007808
:10192000C860700748BF5FEA097005D508202168C4
:10193000C860204600F091F8B00707D52068C0685D
:1019400010F0030F1CBF2046FFF7DBFC700648BFFA
:101950005FEACA6004D52168102048F480680861F5
:10196000B00648BF5FEA0A7005D508202168086103
:10197000204600F074F8F00607D52068006910F0E2
:10198000030F1CBF204600F069F8B00307D5F80626
:1019900005D5216810204860204600F061F8F0036A
:1019A00007D5380705D5216808204860204600F093
:1019B00058F830043FD578073AD5F00544BF5FEAC0
:1019C000CB7048F00108B00544BF5FEA8B7048F067
:1019D0000208700544BF5FEA4B7048F00408300508
:1019E00026D51BF0700F23D00BF0700010280CD000
:1019F00020280DD030280ED040280FD0502810D0ED
:101A0000602808BF48F480780DE048F008080AE034
:101A100048F0100807E048F0200804E048F04008CB
:101A200001E048F080082068816921F0700181613F
:101A3000042021684860B8F1000F06D0606A48EAC7
:101A400000006062204600F00DF8BDE8F18F70479D
:101A500070477047704770477047704770477047CE
:101A600070477047704700004FF08073490840F896
:101A7000043D490040F8041D0FF20D0140F8041D1B
:101A800040F8142D2038704760494968502011F102
:101A9000010F06D080F31188BFF34F8FBFF36F8F14
:101AA000FEE780F31188BFF34F8FBFF36F8FFEE720
:101AB0001CB55748554C01780191FF210170017800
:101AC0008DF800109DF8001001F0500121700721E1
:101AD000A16006E0491EA1609DF8001049008DF844
:101AE0000010A1689DF800201206F3D4C1F107028E
:101AF000042A02D000F051F8FEE7090201F4E06187
:101B0000A160019901704348016841F470010160CE
:101B1000016841F07041016000F047F8002060600A
:101B200000F06FFE002016BD502080F31188BFF337
:101B30004F8FBFF36F8F35494A68521C4A60012AA4
:101B40000AD135490968090606D080F31188BFF328
:101B50004F8FBFF36F8FFEE770472C48416839B94C
:101B6000502080F31188BFF34F8FBFF36F8FFEE7D4
:101B7000491E416004BF002080F31188704780B582
:101B800000F00BF800F0EAF918B123494FF080504B
:101B90000860002080F3118801BD502080F3118877
:101BA000BFF34F8FBFF36F8F70471C480021016058
:101BB00081604FF47A721A490968B1FBF2F1491E4B
:101BC0004160072101607047EFF3058050210F4A03
:101BD00010280BD3134BC05C1378984206D281F3C4
:101BE0001188BFF34F8FBFF36F8FFEE790680E4AE7
:101BF000126802F4E062904206D281F31188BFF3CA
:101C00004F8FBFF36F8FFEE7704700003002002058
:101C100000E400E020ED00E004ED00E010E000E072
:101C200050020020F0E300E00CED00E0F0B585B0DC
:101C300050260B9D25B986F3118800F046FBFEE780
:101C40000C9C24B986F3118800F03FFBFEE7542773
:101C50000097009F542F04D086F3118800F035FBC5
:101C6000FEE72563022584F8515002940025039570
:101C700004AD01950A9D009500F034F8204600F06F
:101C80006CF8049805B0F0BD2DE9F0430446154604
:101C900085B088469946A80000F0A2FB06001CD03B
:101CA000542000F09DFB070014D03E63002087F80D
:101CB0005100039002974B460D9801902A460C98CC
:101CC00000904146204600F00DF8384600F045F8F7
:101CD000012004E0304600F00DFC4FF0FF3005B06D
:101CE000BDE8F0832DE9F041089C0546206B00EB30
:101CF0008200001FC708FF00984607F00700425CFB
:101D0000031983F83420425C12B1401C1028F6D32A
:101D1000002084F84300069E072E28BF0626E662B0
:101D20006664A064201D00F020FB04F1180000F0A0
:101D30001CFB2461C6F10700A06164620020E0641E
:101D400084F85000424629463846FFF78DFE206051
:101D5000079800B10460BDE8F0812DE9F041044628
:101D6000FFF7E2FEDFF85055DFF85085E86C401CC5
:101D7000E8641426A86A20BBAC62E86C012828D16C
:101D8000002706FB078000F0E3FA7F1C072FF8D33B
:101D900005F1740000F0DCFA05F18807384600F020
:101DA000D7FA284600F0D4FA05F1140000F0D0FA72
:101DB00005F1380000F0CCFA05F17400E8622F63F9
:101DC00007E0A86D28B9E06AA96AC96A884228BFF5
:101DD000AC62A86E401CA8660121686DE26A914061
:101DE00008436865211DE06A06FB008000F0C0FA28
:101DF000FFF7B3FEA86D68B1A86AE16AC06A8842BD
:101E000008D2DFF8BC144FF080500860BFF34F8F4A
:101E1000BFF36F8FBDE8F08110B504000FD0DFF87D
:101E20009804006F10B100F04DFAFEE700F039F8A9
:101E30000021204600F04EFA00F039F840B9DFF8F2
:101E400080144FF080500860BFF34F8FBFF36F8F47
:101E500010BD00B587B000200590049003AA04A926
:101E600005A800F0DFFC0598039A0FF2DC41029010
:101E7000002304980190002000900FF2F520FFF756
:101E8000D5FE60B100F01EFADFF8A4044FF0FF3178
:101E9000C1660121816500210165FFF709FE07B0D8
:101EA00000BDDFF88C04016F491C0167704770B5F5
:101EB000DFF80454286F0026002410B900F002FA5D
:101EC000FEE7FFF731FE286F401E2867286F0028C5
:101ED00035D1E86CC8B932E0E868C66806F1180088
:101EE00000F06BFA301D00F068FA686DF26A00F0DD
:101EF000F9F86865311DF26A00F0F8F8F06AA96A2D
:101F0000C96A884224BF0120286628680028E3D1D6
:101F10000EB100F065F9EE6D3EB100F01FF808B1AA
:101F200001202866761EF8D1EC65286E38B1DFF8FE
:101F300090134FF080500124086000F0C6F9FFF7BD
:101F40000CFE204670BDDFF8E803006D704780B5D9
:101F5000FFF73AFEDFF8D803006D02BD2DE9F84324
:101F6000DFF85443206F002600284AD1206D451C1D
:101F700025650ED1E06A006810B100F0A3F9FEE714
:101F8000E06A216BE1622063606E401C606600F0D5
:101F900027F94FF01409E06EDFF82083854227D33C
:101FA00019E0381D00F009FAB86A18B107F11800F5
:101FB00000F003FA606DFA6A00F094F86065391D6C
:101FC000F86A09FB008000F0D3F9F86AA16AC96ACF
:101FD000884228BF0126E06A006810B94FF0FF3040
:101FE00005E0E06AC068C76878688542D9D2E066D3
:101FF000A06AC06A09FB00800068022804D3012699
:1020000002E0E06D401CE065206E00B10126304624
:10201000BDE8F283DFF8A002016F11B10121016672
:10202000704701661422416DB1FA81F1C1F11F01BF
:102030005143DFF888228B583BB9502080F3118838
:10204000BFF34F8FBFF36F8FFEE7891801F10803CD
:102050004A6852684A609A4204BF52684A604968B6
:10206000C9688162704710B50C4610B900F02AF9B2
:10207000FEE7DFF84412896A183100F085F920463E
:10208000BDE81040FFE7012124E138B5C068C4680D
:1020900014B900F017F9FEE704F1180000F08DF90B
:1020A000DFF81452286F70B900F0FEF8686DE26A2C
:1020B00000F018F86865211DE26ADFF800021423B9
:1020C00003FB020002E004F11801284600F050F979
:1020D000A86AE16AC06A884202D20120286632BD3D
:1020E000002032BD0121914008437047DFF8CC0148
:1020F000142303FB020000F03BB9DFF834124A6EF0
:102100000260096D41607047F8B504460D465020E5
:1021100014B900F0D8F8FEE715B900F0D4F8FEE7DE
:10212000FFF702FDDFF80802016D62682E688B1A66
:1021300016F1010F0CD0406E2768B84201D09142D1
:102140000AD2B34206D2F01A28602046FFF7D5FF24
:10215000002402E0002028600124FFF7FEFC204656
:10216000F2BDDFF8CC1101200866704700000000C6
:1021700070B5DFF84841DFF8B85111E0FFF7D4FC43
:10218000286AC668301D00F018F9E86C401EE86443
:10219000686B401E6863FFF7E0FC304600F00BF808
:1021A000686B0028EAD120680228F9D300F07FF894
:1021B00000F08BF8F4E710B5044694F8510040B9EC
:1021C000206B00F097F92046BDE8104000F092B96E
:1021D00010BD0128F7D00228FAD000F073F8FEE70E
:1021E000DFF8D400C16A096811B94FF0FF3103E08C
:1021F000C16AC968C9684968C1667047DFF83001BB
:10220000816D09B901207047006F08B9022070473D
:10221000002070472DE9F04104460020002C32D008
:10222000254DAA6A5021944204D081F3118800F010
:102230004CF8FEE7A26C22B981F3118800F045F852
:10224000FEE7511EA164E26A636C9A421BD0D1B9C9
:1022500001261427DFF8648000F026F8002801BF6B
:10226000E06A07FB00810968002900F015F8606C3E
:10227000E062C0F10700A061E06A696D06FA00F251
:1022800000F003F80120BDE8F0811143696507FB08
:102290000080211D00F06CB805D1696D06FA00F0D0
:1022A00021EA000068657047201D00F086B80449E7
:1022B0004FF0805008607047D8230020742400201D
:1022C00004ED00E0502080F31188BFF34F8FBFF37F
:1022D0006F8F7047F8B5164C256D0646A06A0F46FD
:1022E000001D00F06AF828B9A06A616DC06A00F0AC
:1022F00021F8606516F1010F05D127B1A06A011D13
:1023000004F138001CE0A06A76194660AE42A06A6B
:1023100005D2011D206BBDE8F44000F035B8011D69
:10232000E06A00F031F8E06E864238BFE666F1BD43
:10233000D8230020012202FA00F021EA00007047B1
:10234000BDE8F44000F014B849444C4500000000DA
:1023500000F1080141604FF0FF31816000F1080198
:10236000C160016100210160704700210161704777
:1023700042684A6093688B60936859609160086115
:102380000168491C0160704730B50A6812F1010FFD
:1023900008BF036907D000F1080300E023465C682A
:1023A0002568AA42FAD25A684A6091608B605960E7
:1023B00008610168491C016030BD43680169826899
:1023C0009A60836842685A604A68824204BF8268A1
:1023D0004A60002202610868401E08600868704771
:1023E0002DE9F84300250446A946FFF75AFD684F3A
:1023F000B86808BB07F1180207F118034FF48051C1
:10240000104613F0070305D0D01DC008C000C0F56A
:102410008051511809180839C908C90038607D6011
:10242000B9604D600D600A1A426001604068386111
:10243000F8604FF0004078614FF05008786904422E
:1024400046D1002C44D0083414F0070F1FBF04F10C
:10245000080004F00701441A14F0070F02D000F03E
:1024600042F8FEE7A4B3F868A04231D33E6838468C
:1024700001E030460E467168A14202D2316800295F
:10248000F7D1B9688E4223D0016801F1080531689F
:1024900001607068011B11290AD3A01910F007020E
:1024A00002D000F020F8FEE74160746000F04BF8C5
:1024B000F8687168401A3969F860884238BF386135
:1024C0007068796908437060C6F8009005F00709E4
:1024D000FFF7EDFCB9F1000F02D000F004F8FEE7C1
:1024E0002846BDE8F28388F31188BFF34F8FBFF30E
:1024F0006F8F704738B5F0B1A0F10804244D6068C3
:1025000069695022084202D100F016F8FEE72368FC
:1025100013B100F011F8FEE788436060FFF7C1FCDB
:10252000E86861680818E860204600F00CF8BDE82B
:102530003140FFF7BCBC31BD82F31188BFF34F8F30
:10254000BFF36F8F704730B511490A4600E01A4655
:1025500013688342FBD353689C18844203D14068BC
:10256000C01850601046436814681D18A54208D171
:1025700089688C4204D06168C9184160246800E011
:102580000C460460824218BF106030BD000000009D
:102590005802002080B56948016841F001010160DE
:1025A0000022016801F0010100910099416841F0A9
:1025B000805141600F21406800F0805000900098E9
:1025C0006FF0010000F057F95D48016821F0E0610B
:1025D00041F00071016001BD10B586B000F08AF8CD
:1025E00020685849884223D15448016841F4007159
:1025F0000160016801F4007100910099016841F0E7
:1026000010010160016801F010010091009900F0D3
:1026100089F80F200190032002904B4800F062F9E6
:102620006320019001A903200290484800F05AF964
:1026300006B010BD30B585B000F05CF844490868BC
:102640002368444D444C421C3C48AB421ED10A60B6
:10265000012A01D100F053F800F064F84FF48070C3
:1026600000F041F84FF4007000F053F8344801686E
:1026700021F4C04141F0E06141F480410160002259
:102680000521142000F0F7F8142028E0334DAB4268
:1026900027D1436843F080634360012A436803F015
:1026A00080630093009B0A6001D100F028F8016864
:1026B00041F00801016001A9006800F008000090E5
:1026C00000984FF4805000F00EF84FF4005000F0E6
:1026D00020F800220521402000F0CDF8402000F035
:1026E000ECF805B030BD0190002002900390204628
:1026F00000F0F8B8044601A8102100F0D3B94168F1
:1027000041F000714160416801F000710091009951
:102710007047019001A902200290032004902046F6
:1027200000F0E0B8016841F00401016001A900680F
:1027300000F004000090009870470000181002405C
:102740000400014000240140001001400008014045
:10275000EC27002000640040000C014000680040AD
:1027600080B50C48016841F010010160032000F0C1
:1027700075F80F2000F09AF9FFF70CFF002002BD5A
:102780000548416802785118416070470248406826
:1027900070470000002002403C020020EFF3098057
:1027A000BFF36F8F1D4B1A6820E9F00F106008B55A
:1027B0004FF0500080F31188BFF34F8FBFF36F8F3E
:1027C000FFF728FC4FF0000080F31188BDE80840B7
:1027D00019680868B0E8F00F80F30988BFF36F8FBD
:1027E00070470E4B19680868B0E8F00F80F309884D
:1027F000BFF36F8F4FF0000080F311884EF00D0E85
:10280000704707480068006880F3088862B661B6C0
:10281000BFF34F8FBFF36F8F00DF00000024002055
:1028200008ED00E0034B036003F1540008608020D2
:1028300010607047701D002025480068C0F302201A
:1028400070470901002802D4224A8154704700F0E1
:102850000F00214A801800F8041C70471C490A68C0
:102860004FF6FF031A4000F0070042EA00201B4A1F
:1028700010430860704770B504460D461646FFF7D2
:10288000DBFF00F007000121C0F10702052A2EBF7F
:102890000F2201FA02F2521E031D072B34BF002043
:1028A000C01E2A40824001FA00F0401E304040EA3B
:1028B00002012046BDE87040C3E7002807D401218B
:1028C00000F01F029140064A400942F8201070476C
:1028D0000CED00E000E400E018ED00E00000FA0577
:1028E00000E100E02DE9F84700220023604CDFF80A
:1028F0008481DFF884914FF00F0A01E0E560521CFB
:102900000F6837FA02FE00F0A780012606FA02F5EA
:1029100005EA070EAE45F2D14F68002F27D0012FF0
:102920001AD0022F1DD0032F2CD0112F16D0122F0A
:102930001AD0524EB7421CBF514EB74217D0514E1B
:10294000B7421CBF504EB74211D0504EB7421CBFC9
:102950004F4EB7420BD016E0CB6814E0CB681B1D7E
:1029600011E0CB6808330EE0CB680C330BE08B68CA
:102970000BB9042307E0012B19BF08234561082385
:10298000056100E00023BEF1FF0F02D884469500E8
:1029900004E0A2F1080500F1040CAD00DCF80060D1
:1029A0000AFA05F7BE4303FA05F53543CCF80050A3
:1029B0004D68ED00A3D5D9F8005045F00105C9F8E0
:1029C00000504FEA920CD9F8006006F0010500951E
:1029D000009D58F82C6002F00305AD000AFA05F7D7
:1029E000BE432C4FB84208BF00270ED02A4FB84232
:1029F00008BF012709D0294FB84208BF022704D0D9
:102A0000274FB8420CBF0327042707FA05F53543C3
:102A100048F82C506FEA0E074D68ED0325684CBF4F
:102A20004EEA05053D4025604D68AD0365684CBF25
:102A30004EEA05053D4065604D68ED02A5684CBF56
:102A40004EEA05053D40A5604D68AD02E5684CBF06
:102A50004EEA05053D4051E7BDE8F1878068084032
:102A600018BF0120C0B2704702B909040161704764
:102A7000000401400800014018100240000011103D
:102A80000000121000002110000022100000311080
:102A90000000321000080140000C0140001001400D
:102AA00000140140002200F041B8000010B50146BA
:102AB00088B000221920FFF7DEFE1920FFF7FDFE87
:102AC0001448016841F40061016001A9006800F444
:102AD00000600090009802A800F0F6FA00F0EAFA10
:102AE0000D4C0E49216040F2E731E1600C49B0FB2A
:102AF000F1F0401E606000202061A060204600F0E0
:102B000025FB18B9204600F02FFB00E0012008B09B
:102B100010BD00001810024088250020002C014044
:102B200040420F0062F30F2262F31F4200B500BF64
:102B3000130096469446103928BFA0E80C50FAD8E6
:102B40005FEA417C28BF0CC048BF40F8042BC9078E
:102B500028BF20F8022B48BF00F8012B00BD000061
:102B60002DE9F843040016D02078DFF89055C0070F
:102B700013D5686800F00C00042807D0686800F0DE
:102B80000C0008283FD16868C0033CD52868800342
:102B900003D5A068002800F0AD812078DFF86865D3
:102BA000800719D5686810F00C0F07D0686800F02E
:102BB0000C0008285CD16868C00359D428688007D5
:102BC00003D56069012840F095812868A16920F04B
:102BD000F80040EAC10028602078000774D5E16958
:102BE000DFF82805002900F09B8001210160FFF734
:102BF000CDFD0746686A800757D4FFF7C7FDC01BA5
:102C00000328F7D367E1A068B0F5803F09D008B981
:102C100028680AE0B0F5A02F286806D140F480208B
:102C20002860286840F4803005E020F48030286077
:102C3000286820F480202860A06860B1FFF7A6FD16
:102C4000074628688003A8D4FFF7A0FDC01BB0F595
:102C5000803FF6D33FE1FFF799FD074628688003E0
:102C60009BD5FFF793FDC01BB0F5803FF6D332E153
:102C7000606968B101203060FFF788FD0746286869
:102C80008007A2D4FFF782FDC01B0328F7D322E1FF
:102C90003060FFF77BFD0746286880079CD5FFF76B
:102CA00075FDC01B0328F7D315E14FF47A71DFF8E7
:102CB00050040068C008B0FBF1F0009000BF00981D
:102CC000411E00910028F9D1207840076FD5E869AE
:102CD0004FF00008C0000AD4E86940F08050E86175
:102CE0004FF00108E86900F0805000900098DFF88C
:102CF0002094D9F80000C0051FD4D9F8000040F492
:102D00008070C9F80000FFF741FD0746D9F80000C0
:102D1000C00512D4FFF73AFDC01B6528F6D3DAE0F0
:102D20000160FFF733FD0746686A8007CCD5FFF7DF
:102D30002DFDC01B0328F7D3CDE02069012808D062
:102D400008B9286A09E00528286A06D140F004007D
:102D50002862286A40F0010005E04008400028622F
:102D6000286A20F00400286241F28939206958B1AC
:102D7000FFF70CFD0746286A800711D4FFF706FD10
:102D8000C01B4845F7D3A6E0FFF700FD0746286AB9
:102D9000800705D5FFF7FAFCC01B4845F7D39AE03A
:102DA000B8F1000F03D0E86920F08050E861E06AD4
:102DB00000284CD06968C90308D5696801F00C0186
:102DC000082903D1E96AC90300F1948002282ED1B1
:102DD0002868C00006D5E86A616B00F0F000884200
:102DE00040F0888000F08FF807462868000105D57C
:102DF000FFF7CCFCC01B6528F7D36CE0E86A616B79
:102E000020F0F0000843E862E86A216B20F470606B
:102E10000843E862012000F077F8074628680001BF
:102E200015D4FFF7B3FCC01B6528F7D353E0E86A5D
:102E300020F48030E86200F066F807462868000158
:102E400005D5FFF7A3FCC01B6528F7D343E0206A34
:102E5000002851D0696801F00C0108293DD00228F2
:102E60002ED100F04CF807462868800105D5FFF701
:102E70008DFCC01B0328F7D32DE0606AB0F5803FBE
:102E800009D1E86A61680843E862E86AE168000914
:102E900041EA0010E8626868616A20F4741008432F
:102EA000A16A08436860012000F02AF807462868F4
:102EB000800121D4FFF76AFCC01B0328F7D30AE086
:102EC00000F01DF807462868800115D5FFF75EFC65
:102ED000C01B0328F7D303200FE001280AD068683D
:102EE000626A00F48031914202BF00F47010A16A5E
:102EF000884201D0012000E00020BDE8F2830020DC
:102F00003066FFF743BC0020B066FFF73FBC2DE9F9
:102F1000F041040088465ED07E4E306800F0070025
:102F2000404509D23068C00848EAC00030603068C7
:102F300000F0070040454ED12068704F810712D540
:102F4000400703D5786840F4E06078602078000797
:102F500003D5786840F4605078607868A16820F004
:102F6000F000084378602078C00725D56068012804
:102F700002D13968890303E03968022802D1890146
:102F800002D428E0890726D57968890840EA8100BB
:102F90007860FFF7FBFB05467868616800F00C007D
:102FA000B0EB810F08D0FFF7F1FB401B41F28931F4
:102FB0008842F1D303202FE0306800F007008045FD
:102FC0000BD23068C00848EAC0003060306800F0BA
:102FD0000700404501D001201EE02078400705D5BC
:102FE0007868E16820F4E0600843786020780007A2
:102FF00006D57868216920F4605040EAC100786005
:1030000000F011F87A684449C2F30312515CC840D9
:103010003B4900F003F80020BDE8F08108603F481C
:103020000068FFF743BD2DE9D04189B004A80FF235
:10303000FC011022FEF784F800A80FF20011102204
:10304000FEF77EF836492F480A6802F00C03082B79
:103050002DD104ABC2F38344D203E45C25D58B6A43
:1030600000AA03F00F039A5C8B6ADB0314D58B6A0A
:10307000886ADFF89080C0F30320801CA4FB0067FF
:10308000C3F30313A8FB06015B1C08FB0711A2FB9B
:10309000032300F0A7F902E06043B0FBF2F09DF8D3
:1030A0001D108C4203D1400801E01E48604309B066
:1030B000BDE8D08112481A4A006812681A49C2F362
:1030C000C222515CC84070470F220260144A136844
:1030D00003F003034360136803F0F0038360136895
:1030E00003F4E063C3601268D20802F4E062026194
:1030F0000848006800F007000860704700100240B0
:103100005002002000127A00000042428004424235
:10311000007000400020024030C40008440200203B
:103120000410024000093D0068C4000800000405C6
:103130000607080900000000000D0000010203045A
:1031400005060708090A0B0C0D0E0F1010B5040038
:1031500001D1012010BD94F83D0018B900F054F8D9
:1031600000F001F82CE0704790F83D10012901D0E3
:1031700001207047022180F83D100168CA6842F0C2
:103180000102CA600068DFF87410884218BFB0F10D
:10319000804F0AD0DFF8681088421FBFDFF8641044
:1031A0008842DFF86C10884204D1816801F0070181
:1031B000062903D0016841F0010101600020704739
:1031C000022084F83D00211D206800F0CCF8012089
:1031D00084F8460084F83E0084F83F0084F84000FC
:1031E00084F8410084F8420084F8430084F84400E5
:1031F00084F8450084F83D00002010BD002C0140FB
:10320000000400400008004084F83C00204670475D
:10321000000C004010B5044620680169890716D5E6
:10322000C168890713D56FF002010161012121777F
:10323000806910F0030F204602D000F091F804E0FE
:1032400000F08DF8204600F08CF8002020772068F0
:103250000169490716D5C168490713D56FF0040104
:10326000016102212177806910F4407F204602D05D
:1032700000F076F804E000F072F8204600F071F8F3
:103280000020207720680169090716D5C168090761
:1032900013D56FF00801016104212177C06910F096
:1032A000030F204602D000F05BF804E000F057F86E
:1032B000204600F056F80020207720680169C906F2
:1032C00016D5C168C90613D56FF010010161082138
:1032D0002177C06910F4407F204602D000F040F80A
:1032E00004E000F03CF8204600F03BF80020207796
:1032F00020680169C90708D5C168C90705D56FF0FD
:1033000001010161204600F056F9206801690906B3
:1033100008D5C168090605D56FF080010161204616
:1033200000F081F920680169490608D5C16849069D
:1033300005D56FF040010161204600F013F82068C8
:10334000016989060AD5C168890607D56FF0200191
:1033500001612046BDE8104000F064B910BD70471F
:10336000704770477047F0B50368194A194C1A4DF9
:103370001A4E904218BFB0F1804F04D0B0421CBF2B
:10338000A842A0420CD14F6823F070033B43904207
:1033900018BFB0F1804F05D0B04218BFA84201D08D
:1033A000A04203D1CC6823F4407323434C6923F03B
:1033B00080032343036090428B68C3620B6883627F
:1033C00002D10969064A116001214161F0BD000086
:1033D000002C0140000C00400008004000040040A8
:1033E000302C01401B4213D1094236D12AB1844608
:1033F000B0FBF2F002FB10C2704700F015B9FCD32D
:103400000022002370470B000200002100207047BB
:10341000904271EB030CF6D370B5B1FA81F4B3FAB4
:1034200083F52C1BA340C4F1200532FA05F6334383
:10343000A2405FF00046E64002E05B085FEA32022D
:10344000841A71EB030524BF204629467641F4D344
:1034500002000B003000002170BD012ACFD970B5E9
:10346000140C20D0B1FA81F4B2FA82F5C4F1200430
:103470006419B4F12006D6D3B2405FF00044F440A2
:10348000002502E052085FEA3303C61A71EB020E10
:1034900024BF3046714664416D41F3D302000B00F6
:1034A0002000290070BD0C46B1FBF2F102FB114572
:1034B0002D0445EA1045B5FBF2F402FB145580B229
:1034C00040EA0545B5FBF2F002FB105240EA044029
:1034D00070BD000000B595B0FFF742F900F021F88B
:1034E0000EA80FF2EC011C22FDF72AFE00210EA807
:1034F000FDF780FE07A80FF2F4011C22FDF720FE65
:10350000002107A8FDF776FE00A80FF2FC011C229F
:10351000FDF716FE002100A8FDF76CFEFDF758FE32
:10352000FEE700B59BB00DA83821FFF7BBFA00A855
:103530001421FFF7B7FA05A82021FFF7B3FA0920F5
:103540000D9000214FF4803010910F9016900121C2
:10355000129114914FF4E010179000210E91002069
:103560001890022115910DA8FFF7FAFA08B172B66A
:10357000FEE70F200090022102200190002002901F
:103580004FF4806003900020049000A8FFF7BFFC78
:1035900008B172B6FEE7022005904FF40040079094
:1035A00005A800F043F808B172B6FEE7064901200D
:1035B00008601BB000BD00680449884208BFFFF7DF
:1035C000DFB870470000000070004242002C01404C
:1035D00080C3000801C300080000000000000000D4
:1035E0008000000000000000000000008CC3000804
:1035F000474E0008000000000000000080000000AE
:10360000000000000000000098C30008DDC10008B1
:10361000000000000000000080000000000000002A
:103620000000000070477047704700002DE9F0412E
:10363000044682B02078DFF88C52C00751D5E86983
:103640000026C00009D4E86940F08050E8610126F6
:10365000E86900F0805000900098DFF86C723868DC
:10366000C00510D4386840F480703860FFF78EF8D9
:1036700080463868C00506D4FFF788F8A0EB08003C
:103680006528F6D372E0286A10F440701EBF6168A6
:1036900001F44071884219D0286ADFF83012012203
:1036A0000A6020F4407000220A602862C0070DD52D
:1036B000FFF76CF80746286A800707D4FFF766F81B
:1036C000C01B41F289318842F5D34FE0286A616816
:1036D00020F44070084328621EB1E86920F0805051
:1036E000E8612078800705D56868A16820F440402B
:1036F000084368602078400705D5E86AE16820F44F
:1037000000300843E8622078000705D5E86A21699F
:1037100020F480200843E862E86A800302D4E86A63
:1037200040032DD52868C00022D4A069296849012A
:1037300004D5E96A01F0F00181421FD1E96A21F064
:10374000F0010843E862E86A616920F470400843C8
:10375000E86201205E4900F0B2F806462868800061
:103760000ED4FFF713F8801B6528F7D3032011E070
:10377000E86A616900F47040884201D0012009E0E4
:103780002078C00605D56868E16920F48000084308
:1037900068600020BDE8F68130B589B0054604A810
:1037A0000FF238111022FDF7CBFC00A80FF23C11EC
:1037B0001022FDF7C5FC0020424C012D53D0022DF4
:1037C00071D0042D34D0082D36D0102D74D16268FC
:1037D0002168C90170D504A8C2F38341095CD003F4
:1037E0001ED5E26A00A802F00F02105CE26AD20362
:1037F0000CD5E26AE36A374DC2F30312521CC3F3DD
:103800000323B5FBF2F29B1C5A4300E0314AB2FBA2
:10381000F0F09DF81D204843914203D1400801E09B
:103820002D4848436168490246D44000032141E0E5
:10383000E16A890303D505E0E16A490302D4FFF791
:10384000F2FB39E02168C90036D5E06AE16A214A15
:10385000C0F30310401CC1F30331B2FBF0F0891C2C
:103860004843400028E0216A40F202320A40B2F5A3
:10387000817F08BF4FF400401ED001F44072B2F5C2
:10388000007F05D1626A920748BF49F6404013D4D1
:1038900001F44071B1F5407F0ED1216889030BD549
:1038A0004FF2244008E0FFF705FC6168C1F3813165
:1038B000491C4900B0FBF1F009B030BD00200860A0
:1038C000FEF764BF00100240007000404004424216
:1038D0007000424200127A0000093D000000040519
:1038E0000607080900000000000D000001020304A3
:1038F00005060708090A0B0C0D0E0F1080B500F025
:1039000050FD012805D0012000F039FD0A20FDF707
:10391000A0FCDFF83C08C08802BDDFF8380800686A
:10392000C0F34000002808BF01F0F7B9DFF828080D
:10393000017821B18088A0F57A6001F059BA4FF082
:10394000FF3070472DE9F04F8FB0044600200490FF
:103950000390834681460827804600223946DFF8D7
:10396000FC07FFF7DFF8DFF8F80742460421FFF70E
:10397000D9F8062542462946DFF8E807FDF70EFD8F
:10398000DFF8E467424629463046FDF707FD424628
:103990003946DFF8D807FDF701FDDFF8D4074246C6
:1039A0003946FDF7FBFCDFF8CC77FF252A464FF4BC
:1039B00002713846FFF7B6F8DFF8BCA72A4688211F
:1039C0005046FFF7AFF8DFF8941787F8009081F8BA
:1039D00000908AF80090DFF88C1781F8009001F0D1
:1039E00013FA1420FDF735FC012001F00FFA012035
:1039F00001F004FA012001F003FA012001F002FABB
:103A00000120ADF8040001F007FA054601F085F940
:103A1000C0F57A61DFF83807C08801232A4689B2E9
:103A2000FCF731FFFDF7B4FC0990FDF7B1FCDFF8BE
:103A30004C178860FDF7ACFCDFF81C17DFF840A7D7
:103A4000DFF84087DFF84057DFF84077C8608AF832
:103A5000009002E00520FDF7FCFBFDF799FC0999B9
:103A6000401A2E2814D301F0D7F9ADF8000001F068
:103A700054F9C0F57A61DFF8D806BDF80430BDF816
:103A80000020C08889B2FCF7FEFEFDF781FC09909A
:103A90000AA8FCF7ABFF9AF80000002840F0D58098
:103AA000DFF8EC060078002804BF0398002806D051
:103AB0000020ADF8040000F096FB00203DE0DFF8A8
:103AC000BC06007800283AD000F031FB19BFDFF8BF
:103AD000C406B0F90400DFF8A4068088A0F57A6077
:103AE00001F086F9ADF80000DFF890068088A0F5B7
:103AF0007A6001F07DF9BDF8002080B2824288BF73
:103B000002466878B98800FB01F39342B8BF00FB16
:103B100001F2DFF880060189DFF860064088814203
:103B200088BF01463888884238BF01460120ADF879
:103B3000040092B201F0DFF8012001F067F900F013
:103B4000F6FA1EBFDFF85006007800287DD0FFF798
:103B5000D5FE0290BDF80400002827D0029879888D
:103B6000884223DB01F0E5F8029988421EDA01F071
:103B7000E0F8ADF806000298009001F0DAF800F0E5
:103B8000C3FA13DA00F0CBFA00F018FB00F0F300F0
:103B900040F0040000F0A5FA40F00800086000F0D2
:103BA00022FB00F011FB322000F0A0FA00F0BFFA77
:103BB0001EBFDFF8E4050078002846D0FFF7ADFE11
:103BC0000290BDF80400002850D0F8886978484376
:103BD000029988424ADA01F0AFF80299884245DA40
:103BE00001F0AAF8ADF806000298009001F0A4F8E0
:103BF00000F08AFA3ADAB9F1000F02D1FDF7C8FBFA
:103C00008146B9F1000F20D0FDF7C2FBA0EB0900FF
:103C100042F21171884218D300F081FA4FF0000986
:103C200000F0CCFA00F058FA00F05BFA40F0100017
:103C3000086000F0D8FA484601F0E4F8332088F82C
:103C400000001B202070C4F80490DFF850050078B5
:103C5000002874D0DFF8440581790322114208D08E
:103C600000F0B5FA00F0C8FA282026E04FF000096D
:103C7000EBE7C1F3810028B100F0C3FA00F0BCFA11
:103C800029201AE0C1F3011001280ED1707800F04C
:103C9000CF0040F010007070307900F01DFA00F095
:103CA000A1FA00F0A9FA2A2007E08809012806D124
:103CB00000F0A7FA00F0A0FA2B2000F017FADFF8C6
:103CC000DC04C07900F00300012806D100F099FA65
:103CD00000F092FA2C2000F009FADFF8C004C07955
:103CE000C0F38101012905D100F08BFA00F084FABC
:103CF0002D201DE0C0F3011000281CD1F888697840
:103D000000F073FA00F078FA039810B9FDF740FB61
:103D10000390039898B1FDF73BFB0399401ADFF835
:103D2000801488420BD300F06CFA00F065FA2E2064
:103D300000F0DCF903E0012804BF00200390FDF748
:103D400027FBDFF838148968401A40F21B4188428B
:103D50000ED3DFF80C140968012060F3934100F0E2
:103D6000EBF900F042FA00F047FA00F0B0F907E092
:103D7000DFF8EC03DFF8E813006820F44020086067
:103D8000FDF706FBDFF8D013C968401A40F2DD5199
:103D900088422BD3DFF80C0490F82A0030BBDFF800
:103DA0000804089013208DF8150009208DF81600DE
:103DB00000208DF8170002208DF81800FE208DF8E5
:103DC000190000208DF81A0011208DF81B0000202A
:103DD0008DF81C0008208DF8140005A8FCF73DFCA8
:103DE000FDF7D6FADFF87013C86001E000F0A9F91A
:103DF000FDF7CEFADFF86013C968401A41F2ED31E1
:103E000088420ED3DFF858130968012060F311418E
:103E100000F092F900F0E9F900F0EEF900F057F93E
:103E200001E000F08EF9CD48007838B1F888697863
:103E300000F0DBF900F0E0F900F049F9C94800783A
:103E400060B1707800F03F0040F04000707000F00A
:103E5000CAF900F0D1F9252000F048F9D3480078DC
:103E600040B900F04AF900F0BEF900F0C5F90820A9
:103E700000F03CF9B848007810B94FF0000B39E079
:103E8000B548007A6428B8BF4FF0000B1DDBBBF1CA
:103E9000000F02D1FDF77CFA8346BBF1000F11D071
:103EA000FDF776FAA0EB0B00C14988420AD370787F
:103EB00000F012F9707000F096F900F09DF92720DB
:103EC00000F014F9A4480078A0B1A349B148C9880A
:103ED00040880905B0EB115F0CD2B24890F82C0075
:103EE000C0F3801030B100F072F900F085F93D2088
:103EF00000F0FCF800F080FF012800F0DE8004985C
:103F000010B9FDF745FA04900498B0B1FDF740FAF6
:103F10000499401A652810D300F0EFF800F063F917
:103F200000F052F900208AF800000490112088F86F
:103F300000001E2020700020606086480078C007C6
:103F400015D500F0ECF8012060F309217180F888A4
:103F5000697800F04AF900F037F900208AF800008B
:103F60001A2088F800001E20207000206060794828
:103F70000068C0F3802068B100F043F900F024F934
:103F800000208AF80000362088F800001E202070EB
:103F9000002060606F480068C0F3803068B100F0B6
:103FA00030F900F011F900208AF80000402088F86C
:103FB00000001E2020700020606066480068C0F38A
:103FC000005068B100F01DF900F0FEF800208AF8FA
:103FD0000000402088F800001E2020700020606053
:103FE0005C480068C0F3004068B100F00AF900F0D6
:103FF000EBF800208AF80000492088F800001E2015
:1040000020700020606053480068C0F3400068B131
:1040100000F0F7F800F0D8F800208AF800005220ED
:1040200088F800001E202070002060604948006869
:10403000C0F3801068B100F0E4F800F0C5F800208B
:104040008AF800005B2088F800001E202070002005
:10405000606040480068C0F38060B8B170787188D3
:1040600000F0CF0040F010007070012060F38B2151
:104070003079718000F0F30040F00400307171205D
:1040800088F800001E2020700020606049480078F9
:1040900000281FBF47484078C0F3C20004280FD053
:1040A0000120718860F38B21702088F800007180F6
:1040B0001E2020700020606006E0002004903CE795
:1040C00020781A283FF4C6AC0FB0BDE8F08F1C2052
:1040D000207000206060704700F0FC0040F001009C
:1040E00070473071344934480068704788F80000E0
:1040F0001B202070002060607047707800F0F30093
:1041000040F004007070704764220099081ABDF8EE
:10411000061001EB810191FBF2F18142704770784A
:10412000718800F0CF0040F01000707070471D489B
:1041300090F82A000028704709480160F8886978DB
:10414000704707480649006820F44030086070470F
:1041500020270020E427002030270020AC27002063
:10416000D42700209C270020B4270020A42700206B
:10417000BC270020D0210020002500205C27002043
:104180000D2800200E280020982600202400002062
:104190000C280020842600205027002068270020BB
:1041A000793309004C00002056F4EC1C0A2800204A
:1041B00031EC01008C270020E8270020012060F36B
:1041C0008B21307971807047002000F01BBE707821
:1041D00000F0CF0040F010007070307900F0F30074
:1041E00040F0040030716978F88801FB00F27988AA
:1041F00092B2002000F07FBD00208AF8000000F09D
:1042000005BE7078718800F0CF0040F0100070702B
:10421000012060F38B217180F888697801FB00F23E
:10422000798892B2002000F066BD000038B5DFF852
:10423000905204462878A0420BD0DFF88802012C67
:1042400008BF002201D01CB901222021FEF70CFC7E
:104250002C7031BD4FF400513CE038B50446DFF816
:10426000645208E0012200F02EF8002200F025F848
:104270000120FCF7EEFF2046441E80B20028F1D159
:1042800011E038B50446DFF83C5207E000F01AF8B8
:10429000012200F012F80120FCF7DBFF2046441E4B
:1042A00080B20028F2D100F00DF82846BDE8384071
:1042B00000224FF40041FEF7D7BB4FF400412846DF
:1042C000FEF7D2BB00224FF480412846FEF7CCBB5C
:1042D0004FF480517B48FEF7C1BB38B50C0020D0AD
:1042E000784D68B99620FFF7CCFF00F01BF8C0B9F5
:1042F000E4B2002C15D09620FFF7C3FF641EF4E74C
:1043000001280ED19620FFF7A8FF03E09620FFF7C3
:10431000A4FF641E00F006F8012802D1E4B2002CCC
:10432000F4D131BD4FF480512846FEF797BB70B5EC
:104330000446644E644D00F019F8012802D1287833
:10434000204312D000F012F8002802BF287801287C
:10435000012C0AD0012C02D10521012002E01CB958
:1043600005210020FFF7B9FF2C7070BD4FF480517C
:104370003046FEF773BB04215448FEF76FBB38B5D7
:10438000534D04462878A0420AD05248012C08BF59
:10439000012201D01CB900220421FEF765FB2C701C
:1043A00031BD042111E038B54B4D04462878A042B8
:1043B0000AD04848012C08BF012201D01CB90022B4
:1043C0000821FEF751FB2C7031BD4248FEF746BB79
:1043D0001021FAE770B5414D04462878A04215D067
:1043E000384E012C06D101224FF4006100F013F881
:1043F000012206E04CB900224FF4006100F00BF8F6
:1044000000224FF4806100F006F82C7070BD10217E
:1044100060E74FF480713046FEF726BB38B5304D6B
:1044200004462878A0420BD02648012C08BF012260
:1044300001D024B900224FF48071FEF715FB2C70D7
:1044400031BD38B5274D04462878A0420AD01D4812
:10445000012C18BF002C04D101224FF40071FEF78B
:1044600003FB2C7031BD38B51F4D04462878A0429F
:104470000AD01448012C08BF012201D01CB9002227
:104480008021FEF7F1FA2C7031BD4FF4807121E7E5
:1044900080211FE74FF400711CE738B5134D044627
:1044A0002878A0420AD00748012C08BF012201D079
:1044B0001CB900224021FEF7D7FA2C7031BD000054
:1044C00000280020001001400128002000140140B5
:1044D00002280020000801400328002004280020B2
:1044E0000528002006280020072800200828002092
:1044F0000FB4F8B50846C0F3054123292BD1DFF8E6
:10450000885800F03F04D5E90467012000212246C5
:1045100000F010FD30433943C5E90401DFF86C08B1
:104520002C2101FB0404FCF733FFA0610D980178F6
:10453000112949D1417801290ED14279017912041A
:1045400002EB01618279C07901EB022140186421FC
:10455000B0FBF1F0A080B4E002290ED142790179DC
:10456000120402EB01618279C07901EB022140184B
:104570006421B0FBF1F0E080A3E0102910D1427972
:1045800083792169C0791B0203EB024241F0FF11DC
:10459000801841F47F4140F07F400840206190E066
:1045A0001129FCD1C2792169120642F0FF1241F0B3
:1045B0007F4142F47F4211402161C07910F0010136
:1045C00018BF012121777CE021297AD14178012986
:1045D0000ED142790179120402EB01618279C0792E
:1045E00001EB022140186421B0FBF1F0E08368E0A8
:1045F00002290ED142790179120402EB016182791C
:10460000C07901EB022140186421B0FBF1F0208455
:1046100057E003290ED142790179120402EB0161BE
:104620008279C07901EB022140186421B0FBF1F0DE
:10463000608446E004290ED142790179120402EB2C
:1046400001618279C07901EB022140186421B0FB3D
:10465000F1F0A08435E005290ED1427901791204E8
:1046600002EB01618279C07901EB022140186421DB
:10467000B0FBF1F0E08424E006290ED14279017903
:10468000120402EB01618279C07901EB022140182A
:104690006421B0FBF1F0208513E0082911D14279A3
:1046A0000179120402EB01618279C07901EB0221E8
:1046B00040184FF47A71B0FBF1F06421B0FBF1F0D7
:1046C000A081F1BC5DF814FB00B587B0002100911A
:1046D0000246C168029100AB0421039100210491BC
:1046E000017ADFF8AC064068059101A9FCF7AEFF3E
:1046F000002814BF0020012007B000BD2DE9F04FB5
:1047000085B0FCF745FEDFF88C16DFF88C46496B68
:10471000401AFB280BD300F071F9102000F0B8FA12
:1047200000F0A7FAFCF734FEDFF868164863FCF7E0
:104730002FFEDFF86016896B401AB0F5FA7F0AD9B0
:1047400000F05CF900F0A4FA00F093FAFCF720FE08
:10475000DFF840168863FCF71BFEDFF83816C96BDC
:10476000401A40F2E341884219D308208DF808002E
:10477000039400F0B4FA00F07CFA00F03FF900F086
:1047800086FA00F076FA00F041F9082000F080FA8D
:1047900000F06FFAFCF7FCFDDFF8F815C863FCF7D2
:1047A000F7FDDFF8F015096C401A40F2EF2188425E
:1047B00017D300F02BF900F095FA00F05AFA00F048
:1047C00025F900F064FA00F04DFA00F01FF903201B
:1047D00000F05EFA00F046FAFCF7DAFDDFF8B415F7
:1047E0000864FCF7D5FDDFF8AC15496C401AB0F54C
:1047F0007A7F19D900F00AF9042000F049FA00F094
:1048000031FA00F003F9052000F042FA00F02AFA2C
:1048100000F0FCF8062000F03BFA00F023FAFCF769
:10482000B7FDDFF870154864FCF7B2FDDFF86415DA
:10483000096B401AC828C0F0E080FCF7A9FDDFF83A
:10484000541508630025012401262F468DF81050C9
:10485000A846DFF83405D0E9042306EA020017EA87
:10486000030108BF002838D0FCF792FDDFF81C15C3
:104870002C2202FB08118A69801AB0F5FA5F16D95A
:10488000DFF80425DFF800C5D2E904ABF043F943B3
:104890000AEA00020BEA0103DCE906AB0AEA0000BF
:1048A0000BEA0101CCE90423CCE9060115E0086913
:1048B000DFF8E814084210D1DFF8CC04D0E9062371
:1048C00042EA0600DFF8C02443EA0701C2E9060114
:1048D0009DF81000401C8DF810007F0047EAD67745
:1048E000760008F10108B8F1400FB2DBCDE90245CE
:1048F0009DF81000DFF8901448700024A246A146ED
:104900002646A0462746A646A446A346DDE9020160
:10491000CDE90001DFF87024D2E90601DDE90023CA
:104920001040194008BF002824D0DFF860042C2173
:1049300001FB0B00C1880C19818851441FFA81FAD0
:10494000818C4D19C18B49441FFA81F9C18C8E1994
:10495000018C41441FFA81F8018DCF19418C808967
:1049600071446044A4B2ADB2B6B2BFB21FFA81FEC8
:104970001FFA80FCDDE90201490041EAD0714000E4
:10498000CDE902010BF1010BBBF10D0FBEDB44F6CB
:1049900020608442A8BF0024DFF8F8138C81824590
:1049A0009DF81010B4BF9AFBF1F20022DFF8E43357
:1049B0005A818542A8BF00251D828642A8BF0026D5
:1049C0009E828742A8BF00271F838145B4BF99FB01
:1049D000F1F20022DA818045B4BF98FBF1F20022A7
:1049E0005A828645B4BF9EFBF1F10021D9828445ED
:1049F000A8BF4FF0000CA3F81AC030E108208DF8D2
:104A00000800039411208DF80000704708208DF8ED
:104A10000800039421208DF8000070472DE9F04F25
:104A2000DFF870432079217885B04FF0000B814288
:104A30001CBF20704FF0010BFCF7AAFCA16C401AC0
:104A4000652804D3FCF7A4FCA0640BF1010BBBF1B7
:104A5000000F00F004812079DFF83083DFF8406335
:104A6000002800F0C680DFF83C93C74D642700F0B3
:104A700081FA00284AD1E088A18C814204D3E18CDC
:104A8000814238BF784301D307FB01F06860687842
:104A900048B12189794391FBF0FB00FB1B1020B149
:104AA0000BF1010B01E0D5F808B0208D07FB00FAEF
:104AB000DA4538BFD34604D3608D7843834538BF89
:104AC000834600F024F900B9012099F82610B64A6F
:104AD0005143B1FBF0F0584598BF8346A86858454C
:104AE00028BFC5F808B006D200F5FA70A86058458E
:104AF00088BF5846A860A9688A4538BFC5F808A08D
:104B000004D3608D7843814238BFA86000F032FA48
:104B1000012819D16089A4497843686099F8260072
:104B200048436968B0FBF1F02189784379438842B2
:104B300003D39E4A127802B90846A860B0F57A5F9E
:104B400084BF4FF47A50A8606868039608218DF8F6
:104B500008108DF8070011218DF8001001218DF843
:104B600001100021ADF80210010E8DF80410010CA7
:104B70008DF80510010A8DF8061000F078F800F0A5
:104B800078F8A968039608208DF808008DF80710BA
:104B900011208DF8000002208DF801000020ADF8F2
:104BA0000200080E8DF80400080C8DF80500080AB4
:104BB0008DF8060000F05BF800F05BF898F81C0038
:104BC000012803D100F0D6F9012805D098F81C007F
:104BD00030B900F0CFF918B900F062F8112035E0D3
:104BE00000F06BF800F0C6F901280CBFA220A0204D
:104BF00031E000F055F800F072F800F033F800F002
:104C000054F800F044F800F02DF800F04EF800F0F1
:104C100033F8A12000F029F800F024F898F81C00DF
:104C200050B900F0A7F9012806D100F046F8A220FB
:104C300000F01BF800F016F898F81C0001280ED1BF
:104C400000F098F958B900F02BF821208DF80000F9
:104C500000F012F8A02000F008F800F003F805B00A
:104C6000BDE8F08F0520FCF7F4BA8DF8070000A826
:104C70002AE50220FCF7EDBA10208DF80100002093
:104C8000ADF80200ADF804008DF806007047022070
:104C90008DF801000020ADF80200019000A813E596
:104CA00008208DF808000396704708208DF808004A
:104CB000039611208DF80000704708208DF8080039
:104CC000039621208DF8000010208DF801000020AF
:104CD000ADF80200ADF804008DF806007047112011
:104CE0008DF8000001208DF801000020ADF80200D1
:104CF000019000A8E8E410B5264B9C8D944238BF83
:104D0000224600B101201A81D980187110BD2148B6
:104D100024494089B1F8401004E01E4821498089A7
:104D2000B1F8421048434FF47A71B0FBF1F080B211
:104D300070471848C0887047164800897047154862
:104D4000C089704780B5C820FCF783FAFCF7A9FA40
:104D500014491048CA8B82841E314A88C2848A88CA
:104D60000285CA88C98C8185428509491048C86076
:104D7000FFF7C4FC0F20FCF76CFAFFF74FFE0F2083
:104D8000FCF767FAF4E70000982600207012002074
:104D90007801002000000020F000A30221AA7EF08C
:104DA000F03FA4024C00002040420F0054020020BB
:104DB000F144000800B587B000A80FF218011C22CA
:104DC000FCF7BEF9002100A8FCF714FA00B101209D
:104DD00007B000BD50C40008454D000801000000A8
:104DE0000000000080000000000000000000000043
:104DF000002848BF40427047FFF72CBAFFF74DBB71
:104E0000FFF795BAFFF7E6BAFCF744BA010018BFFE
:104E10000121244801707047224840683C21B0FBC2
:104E2000F1F0B0F5167F88BF4FF4167080B270476E
:104E30001C490020486070471A48017811B1416848
:104E4000491C4160704730B583B0FBF729FAFFF782
:104E5000B1FF0FF258000121D0E90023CDE9002372
:104E600000A80022FCF7FCF90F4CA0604FF47A7107
:104E7000FCF7F8F90020207060606420FCF7E9F985
:104E80000FF2300505E00020207060600520FCF77F
:104E9000E0F921781F29F6DA55F8211020468847D5
:104EA000F4E70000CC27002080270020394E0008BE
:104EB0000000000005BC000825C2000899C20008D7
:104EC0000DBE00089DB20008759F0008A5B8000837
:104ED0003DAE00086DB00008ADA9000899A4000817
:104EE00015940008475E000889800008FDAB0008A3
:104EF000B5B40008FD9000080DBD0008677C0008EF
:104F00009D690008CD9C000811970008CD8D000810
:104F10009D8A000803780008657300084539000879
:104F2000FD830008658700080DA20008099A0008A3
:104F30000DBD0008D2B2203A22BF00FA02F10020D3
:104F400070475242D041D2F1200291404140D040BE
:104F500090404140704700003C490A78012A1FBF39
:104F60004A78002A8A78824203D0002814BF012898
:104F70008870704735488078704738B5344DFFF7F2
:104F8000FAF9344C2870284600F094F820B12846ED
:104F900000F090F8012809D12F49002008702F490E
:104FA0000870206810B9FCF7F3F92060206888B118
:104FB000FCF7EEF92168401A40F6AD51884209D35A
:104FC00000202060FFF784F920B90521BDE83440B6
:104FD000FFF783B931BD2248806850B12148C089AC
:104FE000252824BF012000F097B81F491F4800F072
:104FF00015B900F094BA38B51D4C207808B31348A1
:105000008078F0B91B4D00F07EFB40F28D41884264
:1050100018D2286810B9FCF7BBF92860286838B1A5
:10502000FCF7B6F92968401A43F69921884204D260
:1050300000F069FBB0F5167F03DA02202070002033
:10504000606031BD00202860F2E7000048020020C7
:10505000F4010020DC2700200A2800200B28002073
:10506000DC01002020270020A401002019510008A5
:1050700080270020E027002010B5044620786178C2
:1050800088420AD1606810B9FCF782F910E0FCF799
:105090007FF96168401AA06010BDA178884208D1EC
:1050A000606820B1FCF774F96168401AA0600020C4
:1050B000606010BD10B50446FFF7DEFFA0682269EE
:1050C0002178824206D2A278914203D10020A060CA
:1050D000012010BDE268824205D2A078814202D14F
:1050E0000020A06010BD6078814201D1022010BD77
:1050F000032010BD012808BF00F0EFB9002808BF49
:1051000000F00DBA7047012808BF00F0DCB9002894
:1051100008BF00F004BA7047012808BF00F0E7B9E3
:10512000002808BF00F0FBB9704710B53048007D7B
:10513000002859D12F48304C026830482478036841
:105140002F493048E41E18D0A41E072C15D9083C5E
:1051500019D0641E11D0641E012C41D9A41E18D090
:10516000641E072C1AD9083C21D0641E28D0641E66
:1051700014D0641E012C33D910BD002B08BF002AA7
:105180002ED1214918E0002B08BF002A28D11F4842
:1051900009E0002B08BF002A22D119E0002B08BF2C
:1051A000002A1DD11A48BDE8104000F037B8002B86
:1051B00008BF002A14D11749BDE8104000F0B7B964
:1051C000002B08BF002A0BD113480078272803D0F2
:1051D000BDE8104000F081B9BDE8104000F087B98B
:1051E000BDE8104000F091B9BDE8104000F097B95B
:1051F000DC010020E827002080270020E427002091
:10520000C0010020A154000814010020075100082B
:10521000F5500008D80000200E28002010B50C46DC
:105220000246207C70B9A06808B901200EE0FCF7A6
:10523000AFF8A2686188801A814212D20020A06073
:1052400001200DE001280CD1A06800B90AE0FCF7AC
:105250009FF8A268A188801A814202D20020A06033
:10526000207410BD9047FCF793F8A06010BD0000BB
:1052700000B585B000A81021FDF714FC01200090B6
:10528000019000A900200290032003907C48FDF7C4
:1052900029FB05B000BD08217A4A030647D5012342
:1052A000136000BF00BF00BF00BF00BF00BF00BF52
:1052B00000BF00BF00BF00BF00BF00BF00BF00BFF6
:1052C00000BF00BF00BF00BF00BF00BF00BF00BFE6
:1052D00000BF00BF00BF00BF00BF00BF00BF00BFD6
:1052E00000BF00BF00BF00BF00BF00BF00BF00BFC6
:1052F00000BF00BF00BF00BF00BF00BF00BF00BFB6
:1053000000BF00BF00BF00BF00BF00BF00BF00BFA5
:1053100000BF00BF00BF00BF00BF00BF00BF00BF95
:1053200000BF00BF00BF00BF00BF53604DE00123BE
:10533000136000BF00BF00BF00BF00BF00BF00BFC1
:1053400000BF00BF00BF00BF00BF00BF00BF00BF65
:1053500000BF00BF00BF00BF00BF00BF536000BF61
:1053600000BF00BF00BF00BF00BF00BF00BF00BF45
:1053700000BF00BF00BF00BF00BF00BF00BF00BF35
:1053800000BF00BF00BF00BF00BF00BF00BF00BF25
:1053900000BF00BF00BF00BF00BF00BF00BF00BF15
:1053A00000BF00BF00BF00BF00BF00BF00BF00BF05
:1053B00000BF00BF00BF00BF00BF00BF00BF00BFF5
:1053C00000BF00BF00BF00BF00BF00BF00BF00BFE5
:1053D00000BF00BF00BF00BF00BF00BF00BF00BFD5
:1053E00000BF00BF00BF00BF00BF00BF00BF00BFC5
:1053F00000BF00BF00BF00BF00BF00BF00BF00BFB5
:1054000000BF00BF00BF00BF00BF00BF00BF00BFA4
:1054100000BF00BF00BF00BF00BF00BF00BF00BF94
:1054200000BF00BF00BF00BF00BF00BF00BF00BF84
:1054300000BF00BF00BF00BF00BF00BF00BF00BF74
:1054400000BF00BF00BF00BF00BF00BF00BF00BF64
:1054500000BF00BF00BF00BF00BF00BF00BF00BF54
:1054600000BF00BF00BF00BF00BF00BF00BF00BF44
:1054700000BF00BF00BF4000491E7FF40EAF704761
:10548000000C0140100C014010B504462078FFF7D5
:1054900002FF6078FFF7FFFEA078BDE81040FAE653
:1054A00070B504460D46002609E02046FFF7ECFFE4
:1054B0002046FFF7E9FF2046FFF7E6FF761CF6B22D
:1054C000AE42F2D370BD80B5FF208DF802008DF89A
:1054D00001008DF80000012113E080B5B2208DF8A5
:1054E000020001211A208DF80100B22007E080B5EA
:1054F00000208DF802008DF801000121FF208DF8B9
:10550000000000A8FFF7CCFF01BD80B500208DF89A
:1055100002000121FF208DF801000020EFE780B597
:1055200000208DF80200ADF800000121E9E738B550
:105530000D46044695F83800002846D1FBF728FFB1
:10554000A968AA78B1FBF2F1AA69801A814208D24F
:10555000FBF71EFFA861A978687988423CBF401C10
:105560006871FBF715FFA9682A78B1FBF2F12A6A86
:10557000801A814208D2FBF70BFF28622978E8786D
:1055800088423CBF401CE870FBF702FFA9686A78BC
:10559000B1FBF2F1EA69801A814208D2FBF7F8FE0A
:1055A000E8616978287988423CBF401C2871E87816
:1055B0002978884222BF6879A978884222BF287951
:1055C000697888426AD3012066E0012810D1686AB0
:1055D00018B9FBF7DDFE686260E0FBF7D9FE6A6A86
:1055E000E968801A814259D200206862022053E0A3
:1055F00002283CD1FBF7CCFE2969AA78B1FBF2F175
:10560000AA6A801A814206D2FBF7C2FEA8626879B4
:1056100008B1401E6871FBF7BBFE29692A78B1FB0F
:10562000F2F12A6B801A814206D2FBF7B1FE2863A1
:10563000E87808B1401EE870FBF7AAFE29696A788D
:10564000B1FBF2F1EA6A801A814206D2FBF7A0FEB2
:10565000E862287908B1401E2871E878002804BF64
:10566000687900281AD12879C0B9032014E00328EA
:1056700014D10020E87068712871686B18B9FBF7C5
:1056800087FE68630AE0FBF783FE6A6B6969801A2C
:10569000814203D20020686385F838000121E81CAC
:1056A000A04731BD80B54FF0834100F0BBF84D49B4
:1056B00000F024F94C4900F063F94C4900F0B2F8CD
:1056C0004B4900F05DF95CE080B54A4900F0AAF86A
:1056D000494900F0A7F84649BDE8044000F050B938
:1056E00080B54648C06900F0C9F900F035F800F00F
:1056F0002FF800F0D1F9424900F094F8414900F048
:105700003FF940493EE080B53C48806900F0B6F979
:1057100000F022F800F01CF800F0BEF93A4900F061
:1057200081F838492EE080B53448C06800F0A6F909
:1057300000F012F800F00CF800F0AEF9334900F078
:10574000F3F924BFBDE80240FFF7ACBF012002BD62
:105750002F4B002200F0FAB92E4A2F4B00F0F6B979
:1057600080B52648006802E080B52448406800F013
:1057700085F9FFF7F1FFFFF7EBFF00F08DF9FFF779
:10578000A3FF264900F04EF800F0B2FA80B202BD45
:1057900080B51A48806800F071F9FFF7DDFFFFF768
:1057A000D7FF00F079F9194900F0BEF924BFBDE830
:1057B0000240FFF777BF012002BD10B5184CFFF77C
:1057C000CFFF2080FFF7D0FF6080FFF7E1FFA080D0
:1057D000FFF7A9FFE080FFF796FFA081FFF780FFAA
:1057E000E08110BD000040C0000070410060104525
:1057F0000000F0400000E0400000A543E826002043
:10580000000005430000C8420000C040CDCC4C3E23
:105810000000303F3F355EBA490C0A40000020418D
:1058200020270020FF2212EAD05C1DBF12EAD153CC
:10583000944593422BE09C44D30780EA01021A402E
:1058400043EA002043EA0121A1FB0030410038BFB8
:1058500040007CF17F010BDBFE294ADA5B0842EA5B
:10586000C15153EA006373F1004C51EB10207047B3
:10587000D1F1080CDCF120012FDB5B0810FA01F1FB
:105880000B4373F1004120FA0CF0504170479445EE
:105890001CBF02EAD153934280EA010202F00042A7
:1058A0001DD0400019D0490017D05BB9634514D012
:1058B0000902B1FA81F39940BCEB030CC00140F03E
:1058C0000040C1E70002B0FA80FC10FA0CF0B3EB24
:1058D0000C0CC90141F00041B6E7100070474000D0
:1058E0000AD0490008D010F1807F94BF11F1807F69
:1058F00002E042F0FF407047D043704790EA010F4A
:1059000044BF81F0004100F01DBA00BF421A3CBF05
:10591000801A89184FF0004CC0F3C752FF2A24D0D8
:10592000C1F3C75313B3D21AD2F1190327DD4CEADE
:1059300001214CFA03F321EA0303D140C20D4CEAE2
:105940000020401834BF20EA0C004CEA5000D20579
:1059500053EA006373EB0C0C52EB1020420012F17F
:10596000807F38BF7047C00DC0057047490212BF25
:105970009A4200EB5120F8E7D2F11703D9D57047CE
:1059800010B5FF2313EAD0541DBF13EAD1529C4235
:105990009A4239E0A41ADA0780EA0103134042EA86
:1059A000012142EA0020421A3CBF641E01EB420280
:1059B000090AB2FBF1FE01FB1E221202B2FBF1F05A
:1059C00001FB10226EF30F201202B2FBF1FE4EEA31
:1059D00000207F3406DDFE2C24DA53EA500050EB21
:1059E000C45010BDD4F1020401FB1E2240F08071AE
:1059F000192C1DDC21FA04F0C4F12004A14011434C
:105A000071F10042584110BD9C421ABF03EAD152C5
:105A10009A420FE080EA010E0EF00043400004D0ED
:105A2000490016D143F0FF4010BD490008BFD343E1
:105A3000180010BD9C4205D1D21AF7D001F00041E8
:105A4000484010BD4A0212BF0846484000F00040DE
:105A500010BD4AB90902B1FA81F2914044B1A418CB
:105A6000C00140F000409EE7C90141F000415242B0
:105A70000002B0FA80F4A040141B94E7010000BFBC
:105A800009D0B0FA80F18840C91CC1F584610905CC
:105A900001EBD021400570474FEAF17CBCF1E04CAE
:105AA0002CBFBCF5001F11E05FEA4C0C34BFBCF109
:105AB0007F5F2EE05FEA9C0C4FEA0C1C4FEA3C0C27
:105AC000C10071F100414CEB50707047C90241EACE
:105AD0005051C00218BF41F0010141F000414FEAAE
